:020000040800F2
:1000000018490020050100088F2900089D1A0008E2
:100010008D2900083F0A0008312D0008000000006B
:10002000000000000000000000000000932900080C
:10003000410A0008000000009129000895290008E5
:100040001F0100081F0100081F0100081F01000810
:100050001F0100081F0100081F0100081F01000800
:100060001F0100081F0100081F0100081F010008F0
:100070001F0100081F0100081F0100081F010008E0
:100080001F0100081F0100081F0100081F010008D0
:100090001F0100081F0100081F0100081F010008C0
:1000A0001F0100081F0100081F0100081F010008B0
:1000B000052A00081F0100081F0100081F01000891
:1000C0001F0100081F0100081F0100081F01000890
:1000D0001F0100081F010008252D00081F0100084E
:1000E0001F0100081F0100081F010008DFF810D0E1
:1000F00000F042FC0048004789410008AFF300804F
:10010000184900200648804706480047FEE7FEE7FA
:10011000FEE7FEE7FEE7FEE7FEE7FEE7FEE7FEE7B7
:10012000012A0008ED000008202A04DB203A21FA09
:1001300002F00021704721FA02F3D040C2F1200200
:100140009140084319467047D2B201E000F8012BF4
:10015000491EFBD270470022F6E710B513460A4647
:1001600004461946FFF7F0FF204610BDF0B480EAC0
:100170000102D40F4200B2EB410F02D20246084600
:1001800011464A0042D0C30DDDB2C1F3C752AD1AC9
:10019000202D35DAC1F3160141F4000204B15242B8
:1001A000C5F1200602FA06F12A411044B3EBD05FF4
:1001B00023D0C4B1012DA0EBC35009DCF0BC4FF03B
:1001C000004202EAC352DBB200F5000000F0E9BAD7
:1001D000400000F1807000EBC350A0F1807040EA55
:1001E000D170490009E0490841EAC071A0EBC35051
:1001F00000F50000400800EBC350F0BC00F0C8BAA6
:100200006142012202EB4101001BF6E7F0BC70479E
:1002100081F00041AAE780F00040A7E780EA0102F0
:1002200010B502F00043400022D04A001FD0010E5A
:1002300001EB1261C0F35600C2F3560240F4000015
:1002400042F40002A0FB022000047F39140400D015
:10025000401C50EA124001D44000491EC2B20C06B4
:1002600004EBD010401C4008802A02D003E000209C
:1002700010BD20F00100002900DA0020184310BD55
:1002800030B480EA010202F0004530F0004221F073
:10029000004013D090B1C30DD40DC2F31601C0F3CA
:1002A0001600E41A41F4000140F400027D3491424A
:1002B00001D3641C00E04900002C02DA30BC0020AD
:1002C00070474FF400000023914201D3891A034381
:1002D00040084FEA4101F7D151B1914202D14FF0AC
:1002E000004105E002D24FF0010101E06FF0010191
:1002F00003EBC450284430BC00F04ABA420005D099
:10030000C0F3C7525242914201DC0020704700EB1B
:10031000C15070472DE9FE4F804681EA0300C00FAF
:100320000C46009021F0004123F00045B8EB02009C
:10033000A94105D24046214690461C460B4602463E
:1003400023F00040104347D0270DC7F30A00C3F342
:100350000A510290401A019040286BDAC3F313004F
:1003600040F4801B0098924620B10023D2EB030A90
:1003700063EB0B0B01985946C0F14002504600F068
:10038000E6F906460D4650465946019A00F0EEF948
:1003900010EB08006141002487EA115284EAE773F8
:1003A0001A4340D0009A62B3019A012A4FEA0752D9
:1003B00015DC001B61EB02014FF0004202EA07521C
:1003C000CDE90042001C41F5801132462B4600F079
:1003D00025FA03B0BDE8F08F40462146F9E7001B3F
:1003E00061EB0201001C41F5801300185B412018ED
:1003F000A2F5001747EB030140EAD570B6196D412D
:1004000011E06D084FEA360645EAC0754FEA07521B
:10041000001B61EB0201001C41F5801149084FEA05
:1004200030000019514132462B4603B0BDE8F04F71
:1004300000F0E5B90098012240000023D0EB020251
:1004400063EBE073009821464FEAE074B8EB0000DC
:1004500061EB0401E9E783F000435BE781F00041D1
:1004600058E72DE9FE4F81EA030404F0004421F02F
:10047000004100944FF0000B23F0004350EA0104C8
:100480005ED052EA03045BD0C3F30A54C1F30A55A9
:100490002C44A4F2F3340194A0FB0254C1F31301E1
:1004A00041F48011C3F3130343F4801301FB0244AE
:1004B00000FB034E840A970A44EA815447EA8357B3
:1004C000A4FB076802958D0A05FB07854FEA932C6C
:1004D00004FB0C542705029D4FEA065847EA1637DD
:1004E000B5EB08056EEB070C870E920E47EA8117F5
:1004F00042EA8312A7FB0201B6EB0B0164EB000496
:100500002B0D43EA0C335E1844EB1C50DA4651467F
:10051000E7FB0201C5F313044FEA0B3343EA14531C
:100520004FEA0432019C43EA0603A4F10C0402944E
:10053000009CCDE900B400F071F903B0BDE8F08F84
:1005400000200146F9E72DE9F04D81EA030404F0AB
:10055000004B21F0004514464FF0000A23F0004103
:1005600050EA050220D054EA01021DD0C5F30A5713
:100570000246C5F31303C1F31300C1F30A5640F456
:10058000801543F48013A7EB0608101BD64608F22B
:10059000FD3873EB050002D308F1010801E0921861
:1005A0005B41B8F1000F03DA00200146BDE8F08D91
:1005B00000204FF48011064684460EE0171B73EBB3
:1005C000050705D3121B63EB050306434CEA010C38
:1005D00049084FEA300092185B4150EA0107EDD11B
:1005E00052EA030012D082EA040083EA05010843BC
:1005F00005D0101BAB4106D20122002306E00022E9
:100600004FF0004302E06FF0010253101AEB0600B6
:100610004CEB085110EB0A0041EB0B01BDE8F04D2B
:1006200000F0EDB8C10F80EAE0700844CA079623D5
:10063000002100F0B6B896230022114600F0B1B8B0
:100640000EB5C10F80EAE0700844CA07002140F2ED
:1006500033438DE80E000A460B4600F0DFF803B086
:1006600000BD00F0004230F000400AD0C10D01F59D
:100670006071C0F3160042EA0151C20840071143FD
:10068000704700200146704701F0004330B421F06C
:10069000004150EA010206D00A0DA2F56072C1F3D2
:1006A0001301002A02DC30BC00207047440F44EAEA
:1006B000C104C100E01830BC00EBC25000F068B8C3
:1006C00030B50B46014600202022012409E021FA22
:1006D00002F59D4205D303FA02F5491B04FA02F51F
:1006E0002844151EA2F10102F1DC30BD2DE9F05FB6
:1006F0000546002092469B46884606468146402491
:100700001BE02846414647462246FFF70DFD53466B
:100710005A46C01A914110D311461846224600F09D
:1007200016F82D1A67EB01084F46224601200021DA
:1007300000F00DF817EB00094E41201EA4F1010452
:10074000DFDC484631462A464346BDE8F09F202A72
:1007500004DB203A00FA02F1002070479140C2F118
:10076000200320FA03F3194390407047202A06DB48
:10077000CB17203A41FA02F043EAE07306E041FA6F
:1007800002F3D040C2F1200291400843194670475D
:100790000029A8BF7047401C490008BF20F0010095
:1007A000704710B4B0FA80FC00FA0CF050EA010473
:1007B00004BF10BC704749B1CCF1200421FA04F405
:1007C00011FA0CF118BF012121430843A3EB0C01DE
:1007D000CB1D4FEA00614FEA102042BF002010BC41
:1007E000704700EBC35010440029A4BF10BC7047F1
:1007F000401C490008BF20F0010010BC704710B534
:10080000141E73F1000408DA401C41F10001921833
:100810005B411A4301D120F0010010BD2DE9F04DDC
:1008200092469B4611B1B1FA81F202E0B0FA80F231
:1008300020329046FFF78BFF04460F4640EA0A003D
:1008400041EA0B0153465A46084313D0114653EA76
:10085000010019D0C8F140025046FFF765FC05467B
:100860000E46504659464246FFF771FF084305D0F1
:10087000012004E020463946BDE8F08D0020054304
:1008800046EAE0762C4337430A986305E40AA0EB76
:1008900008000022FD0A44EA47540A3002D500202D
:1008A0000146E9E7010510196941DDE9084500192C
:1008B0006941BDE8F04DA2E770B521F00043034364
:1008C0000CD0C1F30A550024D5EB040564EB0403F6
:1008D000D617AD1AB34102DB0020014670BD2018C7
:1008E00041EB025170BDC1F30A52C1F3130140F252
:1008F000FF3341F480119A4202DA0020014670472A
:1009000040F233439A42A2F2334202DC5242FFF7F2
:100910000BBCFFF71CBF000030B5041E71F10004D2
:1009200004DB4FF00044404264EB0101141E73F1FC
:10093000000405DB1C464FF00043524263EB040306
:100940008B4208BF824230BD30B5041E71F10004F5
:1009500004DB4FF00044404264EB0101141E73F1CC
:10096000000405DB1C464FF00043524263EB0403D6
:10097000994208BF904230BD064C074D06E0E06842
:1009800040F0010394E8070098471034AC42F6D3D6
:10099000FFF7B0FB904D0008B04D00082DE9F04D79
:1009A00000231A461B1A8A4103DB00200146BDE8DA
:1009B000F08DC1F30A52C1F3130141F480154FF0D9
:1009C000000BD10702D100186D41521E00270446CA
:1009D00040F2FF11384601EB620A3E46804602466D
:1009E00000204FF48011FFF79FFBC2197141BB1823
:1009F00046EB0100B4EB030C75EB000C04D3E41AD6
:100A000065EB000517460E46241908F101006D41FB
:100A100080463428E3DDF91946EB0600091BA8419E
:100A200003D24FF0FF32134601E0002213461BEBC6
:100A3000070046EB0A51BDE8F04DFFF7E0BEFEE7C8
:100A4000704770B5054600244FF47A7603E03046CF
:100A500000F004F8641CAC42F9D370BD70B54FF0DF
:100A6000E024002265690949A36909684843A1692E
:100A70009942FCD002D2A3EB010302E0A5EB0106F0
:100A800033441A440B468242F1D370BD90000020DB
:100A900072B6FEE710B590F821100022022905D0A9
:100AA0000421816380F82020012010BD01680B68BB
:100AB00023F00E030B6001680B6823F001030B6049
:100AC00090F84030C46B012101FA03F3636080F8B1
:100AD000211080F82020104610BD000010B590F8BD
:100AE00021100024022903D00421816301243DE068
:100AF00001680A6822F00E020A6001680A6822F0A2
:100B000001020A601A4A0168914201D1012121E0E3
:100B1000174A1432914201D110211BE0144A2832A5
:100B2000914201D1891515E0114A3C32914201D11F
:100B300089140FE00E4A5032914202D14FF48031B5
:100B400008E00B4A6432914202D14FF4801101E077
:100B50004FF08071064A083A5160012180F8211057
:100B6000002180F82010416B01B18847204610BD5C
:100B7000080002402DE9F84FDFF8B8910024A9F1F0
:100B8000040B23460F2709F1040AABF1040EC9E058
:100B90000125A5402A40AA427DD1674ED1F804C064
:100BA000ACEB0608B44532D014DCBCF1030F3AD0EC
:100BB00009DCBCF1000F2AD0BCF1010F1CD0BCF144
:100BC000020F31D11DE0BCF1110F17D0BCF1120F93
:100BD0002AD119E0B8F5881F19D006DCB8F5803F96
:100BE00015D0B8F5801F1FD111E0B8F5001F0ED049
:100BF000B8F5041F18D10AE0CB6815E0CB681B1DBF
:100C000012E0CB6808330FE0CB680C330CE08B6844
:100C10002BB1012B4FF0080303D0456104E00423FE
:100C200002E0056100E00023FF2A01D8064601E04A
:100C300000F104064FEA840501D9A5F12005D6F894
:100C4000008007FA05FC28EA0C0803FA05F548EAD3
:100C50000508C6F800804D68ED0062D5374DAE69D5
:100C600046F00106AE61AD6924F0030605F001050A
:100C70000095334D06EB050CDCF80850A607360F3F
:100C800007FA06F825EA0805DFF8B880404503D1E1
:100C90004FF0000817E044E0DFF8AC80404502D197
:100CA0004FF001080FE0DFF8A480404502D14FF07B
:100CB000020808E0DFF89880404502D14FF00308B1
:100CC00001E04FF0040808FA06F848EA0508CCF8F5
:100CD00008804D68D9F80060ED024D4601D51643F5
:100CE00000E096432E604D68DAF80060AD0255468C
:100CF00001D5164300E096432E604D68DBF8006096
:100D0000AD035D4601D5164300E096432E604D6865
:100D1000DEF80060ED03754601D5164300E096430A
:100D20002E60641C0D682A46E5407FF431AFBDE8B3
:100D3000F88F00000804014000001110001002406C
:100D40000000014000080140000C0140001001407B
:100D5000001401408068084000D0012070470AB1AB
:100D6000016170470904FBE7014880687047000093
:100D700004000020024881680278114481607047B5
:100D800004000020074810B5016841F0100101601F
:100D9000032000F075F80F2000F006F800F024F8AA
:100DA000002010BD0020024070B50D4D04464FF4E8
:100DB0007A712878B1FBF0F00A490968B1FBF0F0CC
:100DC00000F0E8FA48B9102C07D200222146501E44
:100DD00000F036F800206C6070BD012070BD00008E
:100DE00004000020100000200C4808B5816941F083
:100DF00001018161816901F001010091C16941F046
:100E00008051C161C06900F0805000900448416881
:100E100021F0E06141F00071416008BD0010024026
:100E200000000140002809DB00F01F020121914071
:100E30004009800000F1E020C0F800117047000078
:100E4000F0B40E4B1B680C46C3F30223C3F1070535
:100E5000042D00D90425191D072901D2002300E023
:100E6000DB1E012606FA05F1491E214099409E40ED
:100E7000761E16403143F0BC01F080BF0CED00E05F
:100E8000064900F0070208684FF6FF03184040EAE1
:100E90000220034A10430860704700000CED00E098
:100EA0000000FA052DE9F0470F46050061D0434EDA
:100EB000306800F00700B84209D2306820F007001F
:100EC00038433060306800F00700B84251D12868DC
:100ED0003B4C810712D5400703D5606840F4E060C1
:100EE00060602878000703D5606840F46050606057
:100EF0006068A96820F0F000084360602878C007A7
:100F000028D06868012810D02168022810D08907ED
:100F100000292EDA616821F0030101436160FFF7C7
:100F200023FF804641F288390DE021688903EFE70D
:100F30008901EDE7FFF718FFA0EB0801494502D949
:100F40000320BDE8F0876068696800F00C00B0EB32
:100F5000810FEFD1306800F00700B8420BD930683C
:100F600020F0070038433060306800F00700B842D6
:100F700001D00120E5E72878400705D56068E968D9
:100F800020F4E060084360602878000706D56068B8
:100F9000296920F4605040EAC100606000F038F830
:100FA0006168084AC1F30311515CC84006490860F2
:100FB00006480068FFF7F8FE0020C2E70020024064
:100FC000001002408E4B0008100000200800002096
:100FD0000448054900684968044AC1F30221515C8C
:100FE000C840704710000020001002409E4B0008CF
:100FF0000448054900684968044AC1F3C221515CAC
:10100000C840704710000020001002409E4B0008AE
:101010000E4A51680E4801F00C03042B11D0082B26
:101020000FD10C48C1F38343C903C05C0AD5516892
:10103000084AC1F34041921E515C054A5043B0FB3F
:10104000F1F0704704494843704700000010024027
:1010500000127A007E4B000800093D002DE9F84F90
:10106000040070D02078C04DC00749D06868C0F334
:101070008100012807D06868C0F38100022809D1E7
:101080006868C00306D52868800339D560680028E1
:10109000E7D035E06068B0F5803F0BD010B1B0F517
:1010A000A02F11D0286820F480302860286820F410
:1010B000802002E0286840F480302860606890B1A9
:1010C000FFF752FE06460AE0286840F480202860B8
:1010D000F0E700BFFFF748FE801B642873D828683C
:1010E0008003F7D50CE0FFF73FFE064605E000BFA2
:1010F000FFF73AFE801B6428F0D828688003F7D4F5
:1011000020789A4E80074FF001094FF0000839D53A
:10111000686810F00C0F07D06868C0F381000228DF
:1011200009D16868C00306D42868800714D52069EF
:10113000012808D110E02069B0B1C6F80090FFF78F
:1011400013FE074605E00AE1FFF70EFEC01B02286A
:10115000C4D828688007F7D52868616920F0F800AE
:1011600040EAC10028600DE0C6F80080FFF7FCFDF2
:10117000074604E0FFF7F8FDC01B022823D82868C3
:101180008007F7D4207800072CD57948A169D9B118
:10119000C0F80090FFF7E8FD074604E0FFF7E4FD24
:1011A000C01B02280FD8686A8007F7D571484FF432
:1011B000FA510068B0FBF1F0009000BF0098411EAA
:1011C0000091FAD20EE080E0C0F80080FFF7CCFD7D
:1011D000074604E0FFF7C8FDC01B022875D8686AFF
:1011E0008007F7D42078400760D5E8690027C00061
:1011F00008D4E86940F08050E861E869012700F010
:10120000805000905C480168C90513D4016883468A
:1012100041F480710160FFF7A7FD824606E000BF40
:10122000FFF7A2FDA0EB0A0064284ED8DBF800000F
:10123000C005F5D5E06801280AD008B1052813D00B
:10124000286A20F001002862286A20F0040002E0E9
:10125000286A40F001002862E06841F2883B98B1BA
:10126000FFF782FD82460BE0286A40F00400286206
:10127000EEE700BFFFF778FDA0EB0A0159455AD809
:10128000286A8007F6D50CE0FFF76EFD824605E080
:10129000FFF76AFDA0EB0A0159454CD8286A800780
:1012A000F6D41FB1E86920F08050E861E06988B3A6
:1012B0006968C1F38101022944D00228C6F8608020
:1012C00004D0FFF751FD044638E034E0FFF74CFD51
:1012D000074604E0FFF748FDC01B02282BD828680A
:1012E0008001F7D4206AB0F5803F05D16868A16815
:1012F00020F4003008436860D4E9080108436968B5
:1013000021F4741108436860C6F86090FFF72CFD63
:10131000044606E025E000BFFFF726FD001B02287B
:1013200009D828688001F7D51BE000BFFFF71CFD36
:10133000001B022802D90320BDE8F88F286880012D
:10134000F4D40EE00128F7D06868226A00F48031F6
:10135000914204D1616A00F47010884201D00120EA
:10136000EAE70020E8E700000010024000004242E7
:101370008004424210000020007000404FF0E02145
:101380000428086903D020F004000861704740F089
:101390000400FAE710B5401EB0F1807F01D30120B0
:1013A00010BD4FF0E02460610F21601701F0E6FCF2
:1013B0000020A06107202061002010BD7047704709
:1013C00070B590F83C20012A26D0012480F83C40DA
:1013D000022280F83D2003685A689D6822F070065A
:1013E0000A6832435A600D4B02689A4208D0B2F143
:1013F000804F05D00A4B9A4202D00A4B9A4204D140
:10140000496825F080031943916080F83D40002130
:1014100080F83C10084670BD022070BD002C0140D1
:10142000000400400008004010B5040003D094F808
:101430003D0010B107E0012010BD002084F83C0001
:10144000204600F01FF8022084F83D00211D20688E
:1014500001F0DEFA012084F8460084F83E0084F8AA
:101460003F0084F8400084F8410084F8420084F88A
:10147000430084F8440084F8450084F83D000020CF
:1014800010BD000008B50068B0F1804F12D10A48C5
:10149000C16941F00101C161C069002200F0010091
:1014A000009011461C20FFF7CBFCBDE808401C2033
:1014B000FFF7B8BC08BD00000010024090F83D10D6
:1014C000012901D001207047022180F83D100168F8
:1014D000CA6842F00102CA6000680B49884208D01D
:1014E000B0F1804F05D00949884202D008498842AE
:1014F00004D1816801F00701062903D0016841F099
:101500000101016000207047002C014000040040F0
:101510000008004070B5044690F83C000025012802
:1015200017D0012684F83C60022084F83D00206832
:10153000826822F0770222F47F4282600868502895
:1015400038D00DDC20284FD005DC90B3102811D105
:101550004AE0022070BD302846D040280AD13BE046
:1015600060282FD070280DD0B0F5805F03D0B0F583
:10157000005F12D0012584F83D60002084F83C0013
:10158000284670BDCB68D1E90121206801F07CFAC2
:101590002068816841F0770109E0CB68D1E9012139
:1015A000206801F071FA2068816841F4804181600F
:1015B000E1E719E0CA684968206801F077FA50212C
:1015C000206806E0CA684968206801F080FA602156
:1015D000206801F063FACEE7CA684968206801F024
:1015E00065FA40212068F4E7226801461046F0E7DA
:1015F00070472DE9F04104460068C66805694FF060
:101600000007A90713D5B10711D5F91E0161012003
:101610002077206880698007204602D0FFF7E8FF26
:1016200004E000F07EF8204600F07CF82777680799
:1016300016D5700714D521686FF0040008610220E8
:1016400020772068806910F4407F204602D0FFF7A1
:10165000CFFF04E000F065F8204600F063F827773C
:10166000280715D5300713D521686FF008000861E9
:10167000042020772068C0698007204602D0FFF749
:10168000B7FF04E000F04DF8204600F04BF8277754
:10169000E80616D5F00614D521686FF01000086131
:1016A000082020772068C06910F4407F204602D0CF
:1016B000FFF79EFF04E000F034F8204600F032F817
:1016C0002777E80708D0F00706D021686FF00100FF
:1016D0000861204600F028F8280608D5300606D50F
:1016E00021686FF0800008612046FFF767FE6806FA
:1016F00008D5700606D521686FF0400008612046C5
:1017000000F01EF8A8060AD5B00608D521686FF0CB
:10171000200008612046BDE8F041FFF750BEBDE85B
:10172000F0817047704700000068B0F1804F03D12E
:1017300002480168491C0160704700000000002059
:101740007047704770470000F8B5016804460868A4
:10175000CA684B6910F00F0F4FF0000559D003F025
:10176000010602F49077374365D0C10705D0D10553
:1017700003D5616C41F001016164410705D5D907CA
:1017800003D0616C41F002016164810705D5D9077E
:1017900003D0616C41F004016164010707D502F0D8
:1017A0002001314303D0616C41F008016164616C38
:1017B00000293AD0800604D5900602D5204601F0D3
:1017C000F4F920684069616CC0F38010090700D407
:1017D00060B3204601F0C2F920684069400621D577
:1017E0002068143050E8001F21F0400140E800124A
:1017F000002AF5D1E06BA8B16D494163E06BFFF7BA
:101800006DF9002811D0E06B416B01B0BDE8F040EC
:10181000084783060FD593060DD52046BDE8F8404E
:1018200001F0C3B92046FFF78DFFF8BD2046FFF752
:1018300089FF6564F8BD266B2023012E7CD1C60686
:101840007AD5D60678D508684868009048694FF080
:101850000206400640D5E16B086840680004000CB1
:10186000E8D0A28D8242E5D9E085886920282DD074
:1018700020680C3050E8001F21F4807140E800120D
:10188000002AF5D12068143050E8001F21F0010132
:1018900040E80012002AF5D12068143050E8001FFB
:1018A00021F0400140E80012002AF5D184F84230CE
:1018B000256320680C3050E8001F21F0100140E83B
:1018C0000012002AF5D1E06BFFF7E4F86663A08D03
:1018D000E18D401A81B22AE0A08DE18D401A81B2DB
:1018E000E08D0028A6D00029A4D022680C3252E84E
:1018F000000F20F4907042E80007002FF5D1206817
:10190000143050E8002F22F0010240E80027002F99
:10191000F5D184F84230256320680C3050E8002F60
:1019200022F0100240E80023002BF5D16663204628
:10193000FFF707FFF8BDFFE705062BD5150629D5EC
:1019400094F841002128F5D1A068B0F5805F01D15D
:101950002069B0B1206A411C21622168007848608A
:10196000E08C401E0004000CE084E3D12068C168D4
:1019700021F08001C1602068C16841F04001C16070
:10198000D8E7206A0088C0F308004860206A801CFD
:101990002062E5E74006CDD55006CBD5CA68204683
:1019A00022F04002CA6084F8413000F076F8C1E7C6
:1019B0004D2B000870B5040004D094F841000025B8
:1019C00010B106E0012070BD84F84050204600F0C0
:1019D00023F8242084F841002068C16821F40051D4
:1019E000C160204601F042F92068016921F490416C
:1019F00001612068416921F02A0141612068C168C4
:101A000041F40051C1606564202084F8410084F8ED
:101A100042006563002070BD30B585B0002400949D
:101A20000194029403940068184988422BD1184805
:101A3000C16941F40031C161C16901F4003104910F
:101A4000816941F0040181618069124D00F0040058
:101A50000490042000900220019003200390694626
:101A60002846FFF787F80820CDE900046946284694
:101A70000294FFF77FF8002211462620FFF7E0F9D5
:101A80002620FFF7CFF905B030BD0000004400402C
:101A9000001002400008014070477047FEE7000058
:101AA0007FB5154D002280212846FFF758F9002008
:101AB0000290AC151120CDE9004003200390694647
:101AC0002846FFF757F8002221462846FFF747F936
:101AD0000220FEF7C3FF012280212846FFF73FF9CD
:101AE0000220FEF7BBFF04B02846BDE8704000228C
:101AF0008021FFF734B90000000C01407FB5154D7F
:101B0000002280212846FFF72AF900200290AC1518
:101B10001120CDE900400320039069462846FFF7D5
:101B200029F8012221462846FFF719F90220FEF77D
:101B300095FF012280212846FFF711F90220FEF7C8
:101B40008DFF04B02846BDE8704000228021FFF7D9
:101B500006B90000000C01402DE9FF418046002439
:101B60000320CDE90240194E4FF480770194694675
:101B700000973046FEF7FEFF002500228021304608
:101B8000FFF7EDF80220FEF769FF012280213046C1
:101B9000FFF7E5F86006040E39463046FFF7DAF83D
:101BA00008B1641CE4B20220FEF758FF6D1CEDB2D0
:101BB000082DE2D3B8F1000F02D0FFF771FF01E06A
:101BC000FFF79CFF04B02046BDE8F081000C014007
:101BD0007FB5002002904FF480741120CDE90040C1
:101BE0000320114D039069462846FEF7C3FF0122EA
:101BF00080212846FFF7B3F8012221462846FFF747
:101C0000AEF80420FEF72AFF002221462846FFF7FF
:101C1000A6F80420FEF722FF04B02846BDE8704075
:101C200000228021FFF79BB8000C014070B50F4CDB
:101C3000002280212046FFF792F8A51500222946B0
:101C40002046FFF78CF80420FEF708FF01228021D0
:101C50002046FFF784F8012229462046FFF77FF847
:101C6000BDE870400420FEF7F9BE0000000C014002
:101C70002DE9FF411B4E0546002280213046FFF72B
:101C80006EF800200290B7151120CDE900700320F6
:101C9000039069463046FEF76DFF0024280601D503
:101CA000012200E0002239463046FFF758F8680666
:101CB000050E0220FEF7D2FE012280213046FFF7FA
:101CC0004EF80220FEF7CAFE002280213046FFF7C0
:101CD00046F80220FEF7C2FE641CE4B2082CDDD3F5
:101CE000BDE8FF81000C01407FB500240320CDE951
:101CF0000240184E4FF480750194694600953046B5
:101D0000FEF738FF012280213046FFF728F8012036
:101D1000FEF7A4FE012229463046FFF720F808E02E
:101D2000641CE4B2642C04D9FFF780FF012004B0E6
:101D300070BD0120FEF792FE29463046FFF70AF8F3
:101D40000028EDD1002280213046FFF708F800205E
:101D5000EDE70000000C01407FB5164E4FF4807592
:101D6000002229463046FEF7FAFF002002906C0060
:101D70001120CDE900400320039069463046FEF76C
:101D8000F9FE002221463046FEF7E9FF0220FEF769
:101D900065FE012229463046FEF7E1FF0220FEF7EC
:101DA0005DFE04B029463046BDE870400022FEF7D3
:101DB000D6BF0000000801407FB5164E4FF4807575
:101DC000002229463046FEF7CAFF002002906C0030
:101DD0001120CDE900400320039069463046FEF70C
:101DE000C9FE012221463046FEF7B9FF0220FEF768
:101DF00035FE012229463046FEF7B1FF0220FEF7EC
:101E00002DFE04B029463046BDE870400022FEF7A2
:101E1000A6BF0000000801402DE9FF4780460024CE
:101E20000320CDE902401A4E4FF400770194694631
:101E300000973046FEF79EFE0025B946B7150022F2
:101E400039463046FEF78BFF0220FEF707FE0122DF
:101E500039463046FEF783FF6006040E4946304699
:101E6000FEF778FF08B1641CE4B20220FEF7F6FD2D
:101E70006D1CEDB2082DE2D3B8F1000F02D0FFF7D0
:101E80006BFF01E0FFF798FF04B02046BDE8F08744
:101E9000000801402DE9F0411F46154688460646D8
:101EA000002400F025F8304600F076F800F0B4F891
:101EB000404600F071F800F0AFF800F019F8761C19
:101EC000F0B200F069F800F0A7F86E1E09E0B44225
:101ED00001D0012000E00020FFF79EFF3855641C70
:101EE000E4B2AC42F3D300F033F82046BDE8F08111
:101EF0007FB5002002904FF400741120CDE900401E
:101F00000320124D039069462846FEF733FE012256
:101F1000160231462846FEF722FF012221462846B6
:101F2000FEF71DFF0420FEF799FD002221462846FA
:101F3000FEF715FF0420FEF791FD04B03146284658
:101F4000BDE870400022FEF70ABF00000008014013
:101F500070B5104D4FF48074002221462846FEF7DC
:101F6000FEFE6600002231462846FEF7F8FE0420F9
:101F7000FEF774FD012221462846FEF7F0FE0122FD
:101F800031462846FEF7EBFEBDE870400420FEF720
:101F900065BD0000000801402DE9FF471D4E0546C4
:101FA0004FF48078002241463046FEF7D8FE0020EC
:101FB000029077151120CDE9007003200390694647
:101FC0003046FEF7D7FDB94600244746280601D51E
:101FD000012200E0002249463046FEF7C0FE6806B6
:101FE000050E0220FEF73AFD012239463046FEF783
:101FF000B6FE0220FEF732FD002239463046FEF7DB
:10200000AEFE0220FEF72AFD641CE4B2082CDDD3EC
:10201000BDE8FF87000801402DE9FF4100240320AF
:10202000CDE90240184E4FF40075019469460095C1
:102030003046FEF79FFD0122170239463046FEF773
:102040008EFE0120FEF70AFD012229463046FEF7EA
:1020500086FE09E0641CE4B2642C05D9FFF778FF22
:10206000012004B0BDE8F0810120FEF7F7FC29460D
:102070003046FEF76FFE0028ECD10022394630468C
:10208000FEF76DFE0020ECE7000801402DE9F0416D
:102090001E461546884607460024FFF729FF3846A6
:1020A000FFF77AFFFFF7B8FF4046FFF775FFFFF72E
:1020B000B3FF06E0305DFFF76FFFFFF7ADFF641C75
:1020C000E4B2AC42F6D3FFF743FF0120BDE8F08154
:1020D0002DE9FF4FFF4C87B09946DDF850A0A1696C
:1020E0009346A069FEF79AF80590E169A069FEF7AA
:1020F00095F80490216AA069FEF790F80390616A50
:10210000A069E169E069FEF789F80290216AE06957
:10211000616AE069FEF782F80190216A206AFEF7A1
:102120007DF80690616A206AFEF778F80090616A8F
:10213000606AFEF773F88046E7480068E062E06A8C
:10214000A16AE64D884206D2A06A4FF6FF71081ACE
:10215000E16A084402E0E06AA16A401AFEF76BFAFD
:102160002946FEF78DF80546E06AA06215990846F3
:10217000FEF754F8074651460846FEF74FF8064664
:1021800049460846FEF74AF83146FDF7EFFF394663
:10219000FDF7ECFF01F0DEFF064601464846FEF77C
:1021A0003DF80A9031465046FEF738F81490314613
:1021B0001598FEF733F8189915900846FEF72EF893
:1021C000179907460846FEF729F816990646084665
:1021D000FEF724F83146FDF7C9FF3946FDF7C6FF83
:1021E00001F0B8FF03990198FEF712F80121FEF7FC
:1021F00085F8824600990498FDF7B8FF0121FEF7A3
:102200007DF8814602990598FEF702F80699FDF7D8
:10221000FFFF4146FDF7AAFF216A0746206AFDF746
:10222000FDFF616A0646606AFDF7F8FF3146FDF77B
:102230009DFF0121FEF762F84FF07E584146FDF701
:10224000EAFFA74E3060616AA069FDF7E7FF0090E2
:10225000216AE069FDF7E2FF0099FDF7D9FF01214E
:10226000FEF74CF87060616AE069FDF7D7FF0090F7
:10227000216AA069FDF7D2FF0099FDF7C9FF01218E
:10228000FEF73CF8B060216AE069FDF7C7FF616ABC
:102290000646A069FDF7C2FF3146FDF767FF012141
:1022A000FEF72CF88E4E0C363060E169E069FDF7E0
:1022B000B5FF0090616A606AFDF7B0FF0099FDF715
:1022C00055FF0121FEF71AF84146FDF7A4FF7060A3
:1022D000E169A069FDF7A2FF616A8046206AFDF707
:1022E0009DFF4146FDF794FF0121FEF707F8B0601E
:1022F00049461598FDF792FF064639461498FDF7B2
:102300008DFF3146FDF784FF804639460A98FDF778
:1023100085FF064651461598FDF780FF3146FDF7CB
:1023200077FF074651461498FDF778FF0646494661
:102330000A98FDF773FF3146FDF76AFF064618F06D
:10234000FF4F4BD017F0FF4F48D016F0FF4F45D04E
:10235000DFF8909140464946FDF760FF2946FDF7BA
:102360005DFFE168FDF702FFE06049463846FDF792
:1023700055FF2946FDF752FF2169FDF7F7FE206161
:1023800049463046FDF74AFF2946FDF747FF616998
:10239000FDF7ECFE60614FF0FF3949464046FDF71E
:1023A000ADFF0799FDF7E2FEE168FDF7DFFE07905C
:1023B00049463846FDF7A2FF0899FDF7D7FE216987
:1023C000FDF7D4FE089049463046FDF797FF594681
:1023D000FDF7CCFE6169FDF7C9FE83465946606A88
:1023E000FDF71CFF07460899206AFDF717FF064610
:1023F000E069079980F00040FDF710FF3146FDF7D6
:1024000007FF3946FDF704FF2946FDF707FFA169DD
:10241000FDF7ACFE81460899606AFDF7FFFE0746AE
:102420005946206AFDF7FAFEA16906460798FDF7AE
:10243000F5FE3146FDF79AFE3946FDF7E9FE2946DD
:10244000FDF7ECFEE169FDF791FE616A80460798B1
:10245000FDF7E4FE07465946E069FDF7DFFE064654
:102460000899A069FDF7DAFE3146FDF7D1FE39463D
:10247000FDF77CFE2946FDF7D1FE216AFDF776FEC9
:10248000216A06460798FDF7C9FE07460899E069E4
:10249000FDF7C4FE82465946A069FDF7BFFE5146CE
:1024A000FDF764FE3946FDF7B3FE2946FDF7B6FE9B
:1024B000616AFDF75BFE05460146FDF7AFFE834608
:1024C00031460846FDF7AAFE074641460846FDF795
:1024D000A5FE09E0200000200000002000409C46EE
:1024E000540100206F12833A824649460846FDF7A0
:1024F00095FE5146FDF73AFE3946FDF737FE59463F
:10250000FDF734FE01F026FE074601464846FDF77A
:1025100085FEA06139464046FDF780FEE061394600
:102520003046FDF77BFE206239462846FDF776FEF1
:1025300060620BB0BDE8F08F2DE9F043054685B031
:102540001C4800F03FF81B4CDFF86C804146606986
:10255000FDF764FEDFF864904946FDF791FE0746FB
:1025600041462069FDF75AFE4946FDF789FE0646B9
:102570004146E068FDF752FE4946FDF781FED4E989
:10258000073C0DF10408A168A26988E80E10616893
:1025900000913A4631462368FFF79AFD0848816961
:1025A0002960C1696960016AA960406AE86005B094
:1025B000BDE8F083F01D0020DB0F494000003443EC
:1025C00020000020F0B52B49064687B0A1F10C0091
:1025D00001F04AFC274C28480C3C264D216801603C
:1025E00061684160A16881602968C16069680161B2
:1025F0000027A968C0E9051703AB6A4664210C30BF
:1026000001F088FC1C481D4A009B24381C49934259
:1026100013DA019B934210DA029B93420DDA8A6827
:10262000632A0ADB039A0260049A4260059A826078
:10263000CF600F614F618F6004E08A68642A01DA1D
:10264000521C8A602168316061687160A168B16064
:10265000044601682868FDF7DBFDF0606168686882
:10266000FDF7D6FD3061A168A868FDF7D1FD706166
:1026700007B0F0BDE41D00206C0100200AD7A33C88
:10268000200000202DE9F04F85B004460020049082
:102690006846FFF751FF01210398FDF72FFE0399CC
:1026A000FDF7BCFD05464FF0404949460298FDF74D
:1026B000B5FD0299FDF7B2FD2946FDF7A9FD4FF0E2
:1026C0007E5B5946FDF752FDFDF7CBFF06460D46F2
:1026D00001210098FDF712FE0399FDF79FFD0746C3
:1026E00001210198FDF70AFE0299FDF797FD394691
:1026F000FDF73CFDFDF7B5FF32462B4601F05AFAD7
:10270000DFF8D88000224346FDF7ABFE344E4FF091
:10271000C04A52463346FDF716FFFDF7B5FF20606D
:1027200001210098FDF7EAFD0299FDF777FD0546C6
:1027300049460198FDF772FD0399FDF76FFD2946A3
:10274000FDF714FDFDF78DFF00F0ECFF002243467E
:10275000FDF787FE52463346FDF7F5FEFDF794FF81
:10276000606001210298FDF7C9FD04900299FDF710
:1027700055FD054649460198FDF750FD0199FDF7C5
:102780004DFD2946FDF744FD5946FDF7EFFCFDF7E9
:1027900068FF06460D4601210098FDF7AFFD01993F
:1027A000FDF73CFD0746DDE90310FDF737FD39462F
:1027B000FDF7DCFCFDF755FF32462B4601F0FAF938
:1027C00000224346FDF74DFE5246064BFDF7BBFE89
:1027D000FDF75AFFA06005B0BDE8F08F00806640AD
:1027E000FB2109C0FB21094010B501F0FDFA0028CA
:1027F0000ED108484FF07E5181610021C161016214
:102800004162C16001614161034909688162C1623D
:1028100010BD000020000020000000202DE9F0473E
:1028200086B000242F480094019402940394816997
:1028300041F010018161816901F010010491816909
:1028400041F020018161816901F0200104918169D9
:1028500041F004018161816901F004010491816901
:1028600041F0080181618069DFF87C9000F0080088
:10287000049001224FF440714846FEF770FADFF8E9
:102880006CA001224FF4C0715046FEF768FA4FF475
:1028900080760127022569464846CDE90245CDE903
:1028A0000067FEF767F928024FF01108CDE900082C
:1028B00069464846CDE90245FEF75CF98020CDE93E
:1028C000000769465046CDE90245FEF753F9CDE9C8
:1028D000006869465046CDE90245FEF74BF906B05F
:1028E000BDE8F0870010024000080140000C0140E4
:1028F00010B586B000241648009401940294039405
:1029000004944FF08041059401604721C0E901140F
:102910006321C0E903148461FEF786FD08B1FEF768
:10292000B7F84FF48050009069460948FEF7F2FD71
:1029300008B1FEF7ADF8049404A905480594FEF724
:102940003FFD002801D0FEF7A3F806B010BD00003F
:102950009C0000200C4810B50A4901604FF4E13199
:102960004160002181600C22C160C0E904128161D4
:10297000C161FFF71FF8002803D0BDE81040FEF743
:1029800087B810BD00440040E4000020FEE7FEE7E9
:102990007047704710B5FEF7EDF9BDE8104000F044
:1029A000BDB830B58FB028216846FDF7D4FB14219F
:1029B0000AA8FDF7D0FB01210804CDE9001000248E
:1029C000029402250491CDE907504FF4E0100990DC
:1029D0006846FEF743FB08B172B6FEE70F20CDE96B
:1029E0000A054FF48060CDE90C4002210AA80E943C
:1029F000FEF758FA002801D072B6FEE70FB030BDDE
:102A0000704700000148FEF7F4BD00009C00002064
:102A1000F0B50268194B1A4C1A4D4FF08047984296
:102A200005D0B84203D0A04201D0A84203D122F081
:102A300070064A683243984205D0B84203D0A0429B
:102A400001D0A84203D122F44074CA6822434C69E1
:102A500022F08002224302608A68C2620A688262AF
:102A6000984201D109690163012141610169C907E6
:102A700003D0016921F001010161F0BD002C01408A
:102A8000000400400008004010B5846842EA0322B8
:102A900024F47F440A432243826010BD826822F0FE
:102AA00070020A4342F007018160704710B5036A63
:102AB000046A24F001040462846924F0F00444EA06
:102AC000021423F00A020A438461026210BD10B5A9
:102AD000036A046A24F010040462846923F0A003EA
:102AE00024F4704444EA023243EA01118261016233
:102AF00010BD000070B50024074D264615F83400BF
:102B000028B105EBC40005F8346040688047641CB8
:102B1000E4B2042CF2D370BD7000002010B5002088
:102B2000094B012403EBC0014A7842B1521E12F056
:102B3000FF024A7003D18A784A7003F83040401C83
:102B4000C0B20428EED310BD7000002010B5406A5A
:102B50000021C185C184FEF7F5FD10BD01680C316F
:102B600051E8002F22F4907241E80023002BF5D1A8
:102B70000168143151E8002F22F0010241E80023DE
:102B8000002BF5D1016B012909D101680C3151E805
:102B9000002F22F0100241E80023002BF5D1202164
:102BA00080F8421000210163704708B590F8421088
:102BB000222901D0022008BD82684FF480539A4236
:102BC00001D1016921B1816A9A421BD04AB10AE060
:102BD0000268816A5268C2F308020A80816A891C0D
:102BE00008E0026972B10268526802F07F020A705E
:102BF000816A491C8162C18D491E0904090CC18585
:102C000003D01BE002685268F1E70168CA6822F04D
:102C10002002CA600168CA6822F48072CA60016832
:102C20004A6922F001024A61202180F84210002105
:102C30004163026B012A03D0FEF72EFF002008BD7E
:102C4000016301680C3151E8002F22F0100241E8C5
:102C50000023002BF5D101680A68D20602D50A6864
:102C600049680091818DFEF76CFDE7E770B5044679
:102C700000680169E26821F4405111430161216952
:102C8000A0680843616908432168CA6841F20C637F
:102C90009A430243CA6020684169A26921F44071E5
:102CA000114341611E492068884202D1FEF7A0F914
:102CB00001E0FEF78DF900EBC00101EB0012606846
:102CC00064218000B2FBF0F3B3FBF1F36FF0180660
:102CD0007343B2FBF0F5B2FBF0F605EB830532234C
:102CE00003EB0515B5FBF1F5B6FBF1F605F0F005C4
:102CF00005EB0615B2FBF0F6B2FBF0F0B0FBF1F01D
:102D00006FF01802504306EB800003EB0010B0FB9D
:102D1000F1F0216800F00F002844886070BD0000C9
:102D2000003801400148FEF70FBD0000E40000201C
:102D3000FEE700000FB4054B10B503A9044A029842
:102D400000F06CF910BC5DF814FB0000F1400008C5
:102D500094000020490050EAC12018BF04204A0D09
:102D600018BF40F0010040F2FF72B2EB515F08BFA4
:102D700040F00200012808BF052070470907090E2E
:102D8000002804DB00F1E02080F80014704700F018
:102D90000F0000F1E02080F8141D70472DE9F0418C
:102DA0004F1E00EBC7010446D1E9000115461E463F
:102DB00037F006020DD02A463346FDF752FB7F1E40
:102DC00004EBC703D3E90023FDF7A4FA37F00602AA
:102DD000F1D1022F25D0042F13D0062F18BFBDE844
:102DE000F0812A463346FDF73CFBD4E90A23FDF780
:102DF00091FA2A463346FDF734FBD4E90823FDF760
:102E000089FA2A463346FDF72CFBD4E90623FDF761
:102E100081FA2A463346FDF724FBD4E90423FDF763
:102E200079FA2A463346FDF71CFBD4E90223FDF765
:102E300071FA2A463346FDF714FBD4E90023BDE8B6
:102E4000F041FDF767BA0122FDF736BDFDF762BA22
:102E50000022134610461146FDF775BB024A0020BA
:102E60001107FDF729BD000001FDFFFF02E008C8C2
:102E7000121F08C1002AFAD170477047002001E0F4
:102E800001C1121F002AFBD17047000001490860F0
:102E900070470000980000202DE9FF5F82B00021FC
:102EA000DDE90430020DDDF840B0034318D044F6EC
:102EB0001050A2F2FF3242431514119801281FD07E
:102EC000A5EB0B00401C5FEA000A4FF000064E4FD6
:102ED000DFF83891B046504615D5CAF1000413E02A
:102EE000119801244AA3012801D16FEA0B0102982D
:102EF000119AC0E90031C0E9024206B0BDE8F09F76
:102F0000CBF10000DFE704460021404A491842EBBC
:102F10000450CDE9001012E0E00707D032463B46EE
:102F200040464946FDF79DFA8046894632463B4673
:102F300010461946FDF795FA06460F466410002C18
:102F4000EAD1DDE90401DDE90023BAF1000F06DA78
:102F5000FDF787FA42464B46FDF783FA05E0FDF799
:102F6000F2FA42464B46FDF7EEFA04460E460022C0
:102F7000284BFDF7E9FC03D84FF0FF30014607E08E
:102F80000022254B20463146FDF7C4F9FDF7ABFC86
:102F9000102409E0002C0ADB0A220023FDF7A6FB1F
:102FA000039B30321A55641E50EA0102F2D1641CB0
:102FB000039AC4F111031444119A012A03D0012287
:102FC00008430DD10AE0084304D000204FF0110B54
:102FD000119072E7A3EB0B056D1E0DE05B4504DD60
:102FE0004FF0000205F1010504E003DA4FF00002A2
:102FF000A5F10105002AECD002981199C0E902312F
:10300000C0E9004579E70000000014400000F03FEF
:10301000300000000000F0430000E03F2DE9FF4FCA
:1030200095B09A46884606460025EEE1252877D1D8
:1030300000242746F94A0121039400E0044316F8CE
:10304000013F203B01FA03F01042F7D130782A28E3
:1030500011D06FF02F033078A0F13002092A16D872
:10306000039A44F0020402EB820203EB4202104492
:10307000761C0390EFE758F8042B0392002A03DA3A
:10308000504244F40054039044F00204761C30781B
:103090002E2816D116F8010F44F004042A280DD06A
:1030A0006FF02F023078A0F13003092B09D807EB1D
:1030B000870302EB4303C718761CF3E758F8047B39
:1030C000761C30786C280FD006DC4C2817D0682886
:1030D0000DD06A2814D104E0742810D07A280FD1BA
:1030E0000DE044F400140AE044F4801401E044F4D8
:1030F00040147278824202D104F58014761C761C4A
:10310000307866280BD013DC582877D009DC0028EB
:1031100075D04528F6D04628F4D047281AD193E137
:1031200018E0632835D0642879D0652812D18BE166
:10313000702873D008DC6728F1D069286FD06E281A
:103140000DD06F2806D1ACE073282CD0752874D030
:10315000782853D05246179990476D1C54E1C4F318
:103160000250022809D003280DD0D8F800100428F6
:103170000DD00D6008F1040846E1D8F80010EA17F8
:10318000C1E90052F6E7D8F800100D80F2E70D70A3
:10319000F0E718F8041B8DF8001000208DF80100EE
:1031A000EB46012003E058F804BB4FF0FF30610705
:1031B0004FF0000102D40DE009F101018946B94246
:1031C0000FDA8145F8DB1BF809100029F4D108E07B
:1031D00009F1010189468142FADB1BF80910002937
:1031E000F6D103985346A0EB090721463846179AB3
:1031F00000F080FA284400EB090507E044E008E10C
:103200000DE01BF8010B524617999047B9F10109DF
:10321000F7D2534621463846179AF2E039E00A21A0
:10322000C4F302524FF0000B0091022A06D058F866
:10323000040BC117032A09D00AE023E008F10700B4
:1032400020F00702F2E80201904605E000B2C11743
:10325000042A01D140B2C117002906DA0A4600212A
:10326000404261EB02012D2202E0220504D52B220F
:103270008DF80420012203E0E20701D02022F7E7C5
:10328000914657E00A2100E010214FF0000B009119
:103290000BE010214FF0000B44F0040408270091CC
:1032A00003E008204FF0000B0090C4F30252022A02
:1032B00005D058F8040B0021032A08D008E008F1D3
:1032C000070020F00702F2E80201904603E080B216
:1032D000042A00D1C0B24FF0000922072AD5327863
:1032E000702A07D0DDF800C08CF0100C5CEA0B0CE3
:1032F00005D00EE040228DF80420012208E050EABB
:10330000010306D030238DF804308DF80520022209
:103310009146009B83F0080353EA0B030AD150EA5D
:10332000010201D1620705D530228DF804204FF04B
:1033300001097F1E3278582A04D039A20C920CAAB7
:1033400002920BE03BA2F9E75B46009AFDF7CEF94B
:103350000C9B9B5C029A521E0292137050EA01026F
:10336000F2D1029804A9081A00F1200B600702D5D7
:1033700024F4803400E001275F4502DDA7EB0B0059
:1033800000E0002000EB0B01009003984944401A34
:103390000390E00306D453462146179A039800F0A1
:1033A000A9F90544002706E001A85246C05D179917
:1033B00090476D1C7F1C4F45F6DBE0030CD5534650
:1033C0002146179A039800F095F9054404E030204F
:1033D0005246179990476D1C0099481E009000298D
:1033E000F5DC08E00298029952460078491C0291E7
:1033F000179990476D1CBBF10001ABF1010BF1DC9B
:103400005BE100F065F90544761C307800287FF414
:103410000DAE19B02846BDE8F08F00000928010064
:10342000303132333435363738396162636465663A
:1034300000000000303132333435363738394142FC
:103440004344454600000000600700D4062708F109
:10345000070020F00700F0E80223804603F0004C4C
:103460005FEA0C0001D097A009E0200501D596A0E5
:1034700005E0E00701D095A001E0AFF24C00139009
:10348000307823F0004365280CD006DC452809D0AD
:1034900046281DD047287FD13BE0662818D06728F2
:1034A0007AD136E00021112F01DB112000E0781CD9
:1034B000CDE9000104A90CA8FFF7EEFCDDE90D0140
:1034C0000C9A4FF0000B07F10109109200914EE0A9
:1034D0004FF000400097CDE9011004A90CA8FFF7B8
:1034E000DBFCDDE90D020C9B0F994FF0000B9146C0
:1034F0001093009211B9791C00EB0109B7EB090098
:1035000003D4C0F1FF3B07F10109A9EB07000190CB
:1035100042E0012F00DA01270021112F01DD1120E7
:1035200000E03846CDE9000104A90CA8FFF7B4FC7F
:10353000DDE90D010C9A00914FF0000BB946109295
:1035400021070FD4009A4A4503DA914601E0A9F118
:103550000109B9F1010F05DD109AA9F10101515CD2
:103560003029F4D0B84202DA10F1040F03DA012155
:10357000CDE9011010E0002803DC8344A9EB000131
:1035800002E0411C494500DD8946A0EB0B00401CD0
:1035900001904FF000400290200705D40198484563
:1035A00002DB4FF0FF30019000208DF84B000298B5
:1035B0000DF14B07B0F1004F25D002200C902B20CD
:1035C0000D90029800280CDA404202902D200D90B8
:1035D00007E00A210298FDF773F83031029007F8EE
:1035E000011D0C99481E0C900029F2DC029800285D
:1035F000EFD1791E0D980870307800F0200040F06F
:10360000450007F8020D11A8C01BC01D02901398B9
:10361000007800B1012000EB0901019801EBE07195
:10362000029801440398401A401E0390E00306D418
:1036300053462146179A039800F05CF80544139806
:10364000007818B15246179990476D1CE00323D5B6
:1036500053462146179A039800F04CF805441BE0A6
:10366000BBF1000F07DB0098584504DD109817994F
:1036700010F80B0001E0179930205246904701984E
:103680000BF1010B401E05F10105019004D12E2024
:103690005246179990476D1CB9F10001A9F1010933
:1036A000DEDC05E017F8010B5246179990476D1CB8
:1036B0000299481E02900029F4DC53462146179ACD
:1036C00003989EE62D0000002B0000002000000063
:1036D0002DE9F041044600251E461746880404D40F
:1036E00005E039462020B0476D1C641EF9D52846F8
:1036F000BDE8F0812DE9F041044600251E469046C4
:10370000C80301D5302700E02027880404D505E050
:1037100041463846B0476D1C641EF9D52846BDE8C1
:10372000F08100002DE9F04D8D4F21F0004A86B068
:1037300005460C46BA452ADBAAEB070028430AD007
:103740008848824501DC1AD1CDB106B02846BDE8D3
:10375000F04DFFF778BB844A844B2846FCF781FE86
:1037600007460E46824A834B28462146FCF779FEDF
:1037700006B03A463346BDE8F04DFCF7CBBD01201C
:10378000FFF784FB06B0BDE8F04DFFF761BB7A4858
:10379000824542DABAF1795F0BDA2846FFF7DAFAA6
:1037A000042808BFFFF75AFB284606B02146BDE8AB
:1037B000F08D2A460B461046FCF753FE8346024620
:1037C0006E480E460B4606217844FFF7E7FA5A4644
:1037D0003346FCF746FE804669488A465A463346D9
:1037E00004217844FFF7DAFA5A463346FCF739FEEB
:1037F00000223B46FCF78EFD02460B4640465146F2
:10380000FCF7A1FE2A462346FCF72BFE06B02A460B
:103810002346BDE8F04DFCF77DBD284624F000416D
:1038200000223D463B46FCF719FE4FF0FF32FDF704
:1038300043F80646024653480F460B460621784495
:10384000FFF7ACFA32463B46FCF70BFECDE9000130
:103850004D4832463B4604217844FFF79FFA3246F2
:103860003B46FCF7FEFD00222B46FCF753FD83464A
:1038700002913046394601F033F9804643480D46FF
:10388000504517DCDDE900015A46029BFCF75BFE60
:1038900042462B46FCF7E5FD42462B46FCF73AFD37
:1038A0000122FDF709F8304A304BFCF7D4FD304ACD
:1038B000304B4CE04FF0000A52460B464046FCF7B6
:1038C00029FDCDE9031052462B4610461946FCF758
:1038D000C8FD32463B46FCF7C1FDDDE90332FCF78B
:1038E00032FE06460F46DDE900015A46029BFCF710
:1038F0002AFE83460091012230463946FCF7DCFF60
:10390000194A1A4BFCF7AAFD06460F46012240460B
:103910002946FCF7D1FF5A46009BFCF7A2FD324630
:103920003B46FCF798FD06460F46012250462946C5
:10393000FCF7C2FF0E4DDFF858802A464346FCF7DD
:103940008DFD32463B46FCF789FD2A464346FCF78F
:1039500085FD002CD8BF81F0004106B0BDE8F08D98
:103960000000F03F0000F07F075C143326A6913C76
:10397000182D4454FB21F93F0000E03FD41400000F
:10398000EA1400005E140000741400003333EF3FAB
:10399000FB21E93F2DE9F84F04460D4621F0004098
:1039A00000917349814211DC7249884201DC06D1E1
:1039B0002CB120462946BDE8F84FFFF744BA6E48BF
:1039C000002DCCBF6D496E49BDE8F88F6D4981422D
:1039D00011DD6D498142D8BF4FF0FF366DDD2046C5
:1039E0002946FFF7B7F9042808BFFFF737FA204642
:1039F0002946BDE8F88F6549654F25F000458142AD
:103A000033DD6449814219DD002632464FF08043A0
:103A100020462946FCF77EFC80468A460122204645
:103A20002946FCF749FF00223B46FCF714FD4246BD
:103A30005346FCF788FD04460D463EE00126002271
:103A4000BA463B4620462946FCF764FC80460F46B2
:103A50000022534620462946FCF7FDFC42463B46E1
:103A6000FCF771FD04460D4627E04B4981421BDD02
:103A7000DFF828A102260022534620462946FCF7FB
:103A8000F0FC00223B46FCF745FC80460F46002236
:103A9000534620462946FCF7DEFC42463B46FCF7EF
:103AA00052FD04460D4608E0032622462B46002020
:103AB0003B49FCF748FD04460D4622462B4610467E
:103AC0001946FCF7CEFC8B46824602460B46FCF7B5
:103AD000C8FC07460246334888460B460621784410
:103AE000FFF75CF952465B46FCF7BBFC82462E486A
:103AF0008B463A46434605217844FFF74FF93A464C
:103B00004346FCF7AEFC02460B46002E5046594693
:103B10000CDAFCF7FFFB22462B46FCF7A2FC01B0B7
:103B200022462B46BDE8F04FFCF798BCFCF7F2FBB1
:103B300022462B46FCF795FC1C4A7A4402EBC6034E
:103B4000D3E90023FCF787FC22462B46FCF783FCD5
:103B5000174A7A4402EBC603D3E90023FCF77EFC44
:103B6000009A002AB8BF81F00041BDE8F88F00003C
:103B7000000010440000F07F182D4454FB21F93F51
:103B8000FB21F9BF0000DC3F0000203E0000F33FB6
:103B90000000F03F0000E63F008003400000F83FD7
:103BA0000000F0BF7612000034120000D2110000B5
:103BB0009A1100002DE9F04D9446CCF1000423F059
:103BC00000464CEA0404594F46EAD4749A468846A3
:103BD00021F00042BC4206D8454240EA050442EAD0
:103BE000D474BC4204D9BDE8F04D6246FFF72EB94B
:103BF000AAF14055A5F17F6555EA0C040BD00224CB
:103C000004EAAA744A4DDFF82CE144EAD87452EA77
:103C1000000B04D00CE0BDE8F04DFFF7BBBE002C5C
:103C200014BF012CBDE8F08D022C30D0032C32D013
:103C300056EA0C0B0AD0BE4220D1BA4209D126F076
:103C4000804622F080423346114617E000291ADBF5
:103C500025E0DFF8E4B0FB44002C04BFDBE9000101
:103C6000BDE8F08D012C02BFDBE9000181F00041CD
:103C7000BDE8F08D022C0AD0032C0CD0BA4212D130
:103C8000B8F1000F0BDA2A482C49BDE8F08D284620
:103C90002B49BDE8F08D28467146BDE8F08D2448DB
:103CA0002849BDE8F08D921B12153C2AC4BF204F55
:103CB000244E10DCBAF1000FBEBF12F13C0F0027FA
:103CC0003E4608DB6246FCF73EFC21F00041FFF770
:103CD00061FE07460E4694B1012C08BF86F00046EF
:103CE0000DD0194A194B022C3846314615D0FCF735
:103CF000B2FB2A46BDE8F04D114BFCF7ACBB0022ED
:103D0000134638463146FCF707FE04BF0220FFF792
:103D1000BDF838463146BDE8F08DFCF79CFB2A46DD
:103D2000BDE8F04D064BFCF799BB00000000F07FAA
:103D3000182D4454FB2109C02E110000FB21F9BFAE
:103D4000FB210940FB21F93F075C143326A6A13C67
:103D5000094970B101280AD0022805D0032801D0F2
:103D600008687047054800E0054808607047054846
:103D7000FBE70548F9E700001400002000007A3D49
:103D80000000FA3D00007A3E0000FA3E0D49082886
:103D900005D2DFE800F01513110F0D0B0806486877
:103DA0007047094800E00948486070470848FBE749
:103DB0000848F9E70848F7E70848F5E70848F3E74F
:103DC0000848F1E7140000200000F23900007A3AB8
:103DD0000000FA3A00007A3B0000FA3B00007A3C0F
:103DE0000000FA3C00007A3DAFF3008010B575206A
:103DF00000F090F904460021762000F0A1F901219D
:103E0000112000F09DF96420FCF71BFE472C02D026
:103E10004FF0FF3010BD0220FFF79AFF00217620FF
:103E200000F08EF94821502000F08AF90120FFF7B8
:103E3000ADFF0021762000F083F928214F2000F00B
:103E40007FF90021762000F07BF94E2000F062F926
:103E500020F0200040F00F014E2000F071F9012009
:103E6000FCF7EFFD002010BD2DE9F84F0C4605468C
:103E70000C2226491F2000F05AF9244A5188108844
:103E800049BA0FFA81FA918840BA49BA0FFA81F912
:103E9000D18800B249BA0FFA81F8118949BA0EB235
:103EA000518949BA0FB2FCF7BDFBDFF864B0DBF80B
:103EB00000100091FCF7B2F928605046FCF7B2FB05
:103EC0000099FCF7ABF968604846FCF7ABFB00993A
:103ED000FCF7A4F9A8604046FCF7A4FBDBF804104B
:103EE0000D46FCF79BF920603046FCF79BFB29460A
:103EF000FCF794F960603846FCF794FB2946FCF720
:103F00008DF9A0600020BDE8F88F00002C01002092
:103F1000140000202DE9FF4F07466C488DB09346F2
:103F200001680991D0F804A000294FF0000456D090
:103F3000C4EB041000EB8001654800EB411101EB7C
:103F4000CA020C92D2E9005600F5E15000EBC4021F
:103F5000914603CA33462A46FCF77DFAC9E90001B7
:103F600033462A460191049019461046FCF779FA27
:103F7000584A02EBC40398460CCBFCF76FFAC8E929
:103F80000001CDE9051057F82400FCF76AFB0C9AF4
:103F900005460E46C2E900012A46334601990498B7
:103FA000FCF7B8F9C9E900012A463346104619461C
:103FB000FCF757FADDE90532FCF7ACF9641CC8E9F7
:103FC0000001032CB4DB41480AF1010141600E9A63
:103FD00091423FDB00214160012101603DE0DFF8BB
:103FE000F4903C4E4FF00008A9F1180957F824004E
:103FF000FCF737FBC4EB041202EB8203344A02EBFA
:10400000431303EBCA02C2E9000157F82400FCF78E
:1040100028FB09EBC405D5E90023FCF77BF9C5E9CA
:10402000000157F824000146FCF7F8F8FCF719FBEB
:1040300006EBC405D5E90023FCF76CF9C5E90001DE
:1040400025484BF82400109941F82480641C032C67
:10405000CCDBB8E70998002834D01046FCF7F0FA1A
:10406000DFF87080DFF86C9005460E460024A8F15A
:10407000180800BF08EBC4072A46D7E900013346F9
:10408000FCF761FAFCF700FB109941F82400D7E92E
:1040900000010B460246FCF7E4F92A463346FCF7DA
:1040A00052FA09EBC403D3E90023FCF7D7F92A46F7
:1040B0003346FCF748FAFCF7E7FA4BF82400641C97
:1040C000032CD7DB11B0BDE8F08F000020000020EA
:1040D00088010020C01D00200000C84210B5044621
:1040E0000420FDF74BF90148046010BD900000204A
:1040F00004490A685206FCD5024AC1B2121D116079
:1041000070470000004400400148FEF7BBBA0000C1
:104110003801002008B500218DF8001001466B46DB
:104120000122D220FDF7B6FE9DF8000008BD0B4627
:1041300010B50146D2B2D220FDF7ACFE002010BD72
:1041400013B5014601AB0122D220FDF79FFF0020ED
:104150001CBD000010B504464FF0FF31FCF7CEF84F
:104160000849A1EB64042146FCF758F82146FCF706
:1041700055F84FF07F51FCF74EF82146BDE810404E
:10418000FCF74CB8DF59375FFCF7FCFDFEF709FC84
:10419000FEF744FBFEF7ACFBFEF7DCFB00F0C6FCD1
:1041A0000748FDF78BF94820FFF798FFFEF71CFB47
:1041B0006420FCF746FC00BFFEF79CFCFCE7000017
:1041C0009C000020FEB51B4C6078002831D0E21C1A
:1041D00002F10D01501C8DE80700174A0B1D4FF42A
:1041E000FA75294602F5FA6000F0A6F90120207060
:1041F000A0691149401CA061642001F5FA6200BF6A
:1042000001EB8003A3F5805351F82060C3F8706E72
:1042100002EB800352F82060A3F58053401C80B26B
:10422000C3F8706EA842EBD34FF4C87060810020D1
:104230006070FEBD50000020141E00202DE9FC5FC0
:10424000404D0024A878002845D06878002842D145
:104250004FF400713C48FCF77DFDB0B35FF0000601
:1042600000F040F9304336D06889A846C0F5FA70AE
:1042700005042D0C2CD0DFF8D4B00027E9460BF54F
:10428000FA6AD6B14946072000F0A5F8684600F062
:1042900020F9B8F80A2046464BF8220009F103003D
:1042A00000F017F97189012704464AF82100491CDA
:1042B0006D1E2D0471812D0C2DD000F013F90646D2
:1042C000B54200D2EEB2002521E0FFE70126C7E7A4
:1042D000012088F80100BDE8FC9F6946072000F036
:1042E0007AF8684600F0F5F8B8F80A204BF8220092
:1042F00009F1030000F0EDF80146B8F80A000C449B
:104300004AF82010401C6D1CA8F80A00EDB2B54216
:10431000E3D3B819C7B23FB13946204600F090F850
:1043200000F0E0F818B104E000F0CAF8D3E700F0BC
:10433000C7F8B8F80A10B1F5FA7FCCD3012188F894
:104340000110C8E750000020000C0140141E00209E
:1043500010B50446FDF73CFCAE20FDF789FCFDF7E7
:10436000C3FC68B92046FDF783FCFDF7BDFC38B9F6
:10437000FDF72EFCAF20FDF77BFCFDF7B5FC18B177
:10438000FDF754FC002010BD0020FDF7E5FB0446BE
:10439000FDF74CFC204610BD70B50C460546FDF7F8
:1043A00017FCAE20FDF764FCFDF79EFC58B92846CB
:1043B000FDF75EFCFDF798FC28B92046FDF758FC98
:1043C000FDF792FC18B1FDF731FC002070BDFDF740
:1043D0002DFC012070BD70B50C460546FDF7F8FBBD
:1043E000AE20FDF745FCFDF77FFC28BB2846FDF716
:1043F0003FFCFDF779FCF8B9FDF7EAFBAF20FDF7CC
:1044000037FCFDF771FCB8B90120FDF7A5FB207062
:104410000120FDF7A1FB60700120FDF79DFBA0705E
:104420000120FDF799FBE0700120FDF795FB20715D
:104430000020FDF791FB6071BDE87040FDF7F6BB11
:1044400010B5002921D0114CE2690244E261A08933
:10445000084480B2A081192817D3B2FBF0F120469E
:1044600049F64042007A914203D2502801D2801C82
:1044700005E0074A914205D9082803D9801EC0B239
:1044800000F008F80020E061A08110BD500000207D
:10449000C0D4010010B5082801D2082002E050283D
:1044A00000D95020054C014620720C20FFF774FF04
:1044B000217ABDE810400D20FFF76EBF50000020AC
:1044C00010B50020FFF744FFBDE810400120FFF7C2
:1044D0003FBF017842788907890B807841EA022141
:1044E0000843704710B50420FFF732FF044606204A
:1044F000FFF72EFF0249201A00F01F00487110BD7F
:10450000500000202DE9F8418046DDE907060090C3
:1045100017460C46099D404600F0ECF933463A46F2
:104520002146404600F01CFA2068A84200DB2846DD
:104530002060BDE8F88100002DE9FF4FBFB00E46B6
:1045400000211C4608464C9D04E03F9A52F820206A
:10455000401C1144B042F8DBB1FBF6F20020E04908
:1045600006E03F9B53F820309B1A41F82030401C56
:10457000B042F6DB00204FF4F87C00BF01EB800274
:1045800051F820305768E3463B44D2E902723A447E
:104590001A44D31702EB9372921041F82020401C6A
:1045A0005845EBDBCF4A00204FF4F77301EB80074F
:1045B00051F820C07F688946A7EB0C0742F82070AD
:1045C000401C9842F2DD002002EB800752F82010D8
:1045D0007F689A46394401EBD171491042F82010A6
:1045E000401C5045F0DBC04F00209646002301469A
:1045F000421D08E0A1EB00085EF821C037F81880E2
:10460000491C0CFB18339142F4DB40F27A4193FBD6
:10461000F1F14EF82010401C7346B0F5F47FE5DD53
:10462000002210464FEA0A0753F82010002900DC48
:104630004942401C0A445045F6DD40F2EF1392FB1C
:10464000F3F0052208218DE80700A64A3DA912A82B
:10465000FFF758FF00223D9B12A89646022B1ADB5B
:10466000012109E000EB810C50F821705CF804CCCA
:10467000491CA7EB0C073A449942F3DB5B1E92FB03
:10468000F3F141F2707292FBF1F24D990A604E9A89
:104690000121117005E04D9A944911604E9A82F8FB
:1046A00000E000213D9F06E050F8213024AA9B1C29
:1046B00042F82130491CB942F6DB0020C8460BE025
:1046C0003F9951F8201048F82010419951F82020C6
:1046D000874941F82020401CB042F1DB00221346FC
:1046E00028E000BF24A84FF0010950F823004FF044
:1046F0008076411D51451CDCA0F1050CBCF1000F7A
:1047000017DD401F0FE000BF58F820C0B44509DA9C
:10471000B9F1000F01D04FF0000966460DF10C0C05
:104720004CF82300401C8842EEDBB9F1000F00D1A9
:10473000521C5B1CBB42D5DB022A06DA6B482060A8
:1047400085F800E043B0BDE8F08FDFF8A4C1002099
:1047500008EB800158F820304E68E1463344D1E937
:10476000026131441944CB1701EB9371891048F869
:1047700020100CEB80035CF820605F683E44D3E9B6
:1047800002733B443344DE1703EB96739B104CF8E3
:104790002030401C5845DBDB00200DF1D40B3E904F
:1047A00000234BF82030401C0528F9DB00204FF493
:1047B000FA7309E003A951F82010994203DD4B4830
:1047C000206000208AE0401C9042F3DB0023A2F12D
:1047D000010A61E003A800EB830650F823E0766845
:1047E0004FF07F42A6EB0E0011463B900A2852DDA7
:1047F0007046CC460DE000BF58F820708F4201DDB6
:1048000039463C905CF82070974201DD3A4633907F
:10481000401C8642F0DC59F826C059F82E00029060
:10482000ACEB0000DDF8CCC0ACEB0E0778433B9F4F
:1048300090FBF7F7029807EB000C339F59F82770AD
:10484000A7EB0C07219758F8260058F82E60DDF8E2
:10485000F0C0801BACEB0E0778433B9F90FBF7F05A
:104860003044339E219F58F826604F43301A5043FE
:10487000F911C01100280EDD3E9A052A0BDA51B15C
:1048800001EB8101890091FBF0F23E984BF820206A
:104890003E98401C3E905B1C53459BDB58463E991E
:1048A00000F094F83E9800EBD070401001280ADD2B
:1048B0000BEB80025BF8200052F8042C104400EB54
:1048C000D070401001E05BF82000C11EB529BFF494
:1048D00076AF05493E31085C20600120287031E741
:1048E00074350020B42D0020A64B000819FCFFFFF2
:1048F000443D00202DE9F043814600240120DDF8ED
:104900001C805E1E0C6026E052F82070474521DDB9
:1049100002EB800454F8044CA7421BDD012500E0A3
:104920006D1C44199C4203DA52F824C06745F7D045
:10493000054452F82550AF420ADD0D680F2D07DA05
:104940004FEA850C6D1C0D6049F80C00601C02E0FC
:10495000204600E0401CB042D6DBBDE8F0830000FA
:104960002DE9F0431E4613460C460A6805460146EB
:10497000184600F045F84FF0FF3840461CE00A4664
:10498000411CC6F10009216013E000BF55F82170F9
:10499000431C19D055F82030FB1AB34201DC4B45BB
:1049A00006DA23684FEA830C5B1C236045F80C7021
:1049B000491C9142EADB401C21688142DFDC284629
:1049C000BDE8F04300F002B84346E5E730B5012307
:1049D00012E000BF50F823401A4602E040F822508F
:1049E000521E002A05DD00EB820555F8045CA54245
:1049F000F4DC40F822405B1C8B42EBDB30BD000056
:104A0000F0B5012416E000BF51F82450234602E01F
:104A100041F823605B1E002B09DD01EB830650F893
:104A2000257056F8046C50F826C06745F0DC41F854
:104A30002350641C9442E7DBF0BD00002DE9F04FE9
:104A400000228DB0184F0092CDE90122154C9346FB
:104A50009246B868FBF705FE05460E467868FBF7F8
:104A600000FE804689463868FBF7FBFDDDE9007CE7
:104A7000CDF830A0CDE90A7B029ACDF824C0CDE96B
:104A8000064208948DE803030848CDE9045682687D
:104A9000511C8160012106A0FEF74CF90DB0BDE864
:104AA000F08F000019FCFFFF3801002014000020E7
:104AB00025752C256C752C252E32662C252E3266FC
:104AC0002C252E32662C256C642C25642C256C64D8
:104AD0002C25642C25752C256C752C25750D0A004C
:104AE0002DE9F04106460F46FBF758FF041E0D4620
:104AF00018BF0120284320F00040C0F17F6000F182
:104B0000E040C00F0ED0301C18BF0120384320F009
:104B10000040C0F17F6000F1E040C00F04BF012001
:104B2000FEF7B4F920462946BDE8F08170B586B09D
:104B3000002410480094019402940394816941F088
:104B40000401816180690C4E00F004004FF400659F
:104B50000490224629463046FCF701F901200095D1
:104B6000CDE901040220039069463046FCF702F8C3
:104B700006B070BD001002400008014001020203AF
:104B80000405060708090A0B0C0D0E0F1010000093
:104B900000000000000001020304060708090000ED
:104BA000000001020304290014010002140129007D
:104BB00000000000000000000000000000000000F5
:104BC00000000000000000000000000000000000E5
:104BD00000000000000000000000000000000000D5
:104BE000000000005F5F5F60606061616161616241
:104BF0006262626263636363636363636464646485
:104C00006464646464646464646464646464646464
:104C1000636363636363636362626262626261616E
:104C20006161606060605F5F5F5E5E5E5D5D5D5C98
:104C30005C5C5B5B5A5A59595958585757565655E8
:104C4000555454535252515150504F4E4E4D4C4C5E
:104C50004B4A4A49484847464545444342424140F9
:104C60003F3E3E3D3C3B3A393838373635343332B7
:104C700031302F2E2D2C2B2A29282726252423229C
:104C8000211F1E1D1C1B1A19171615141311100FA6
:104C90000E0C0B0A090706050302010000000000C4
:104CA000555555555555C53F7D6FEB0312D6D4BFAD
:104CB0005544880E55C1C93F3B8F68B52882A4BFB3
:104CC00088B20175E0EF493F09F7FD0DE13D023F74
:104CD0004B2D8A1C273A03C0C88A599CE52A0040FC
:104CE00059018D1B6C06E6BF82922EB1C5B8B33F49
:104CF0004FBB610567ACDD3F182D4454FB21E93FF4
:104D00009BF681D20B73EF3F182D4454FB21F93FE2
:104D1000E2652F227F2B7A3C075C143326A6813C68
:104D2000BDCBF07A8807703C075C143326A6913C13
:104D3000C4EB98999999C9BF711623FEC671BCBF7F
:104D40006D9A74AFF2B0B3BF9AFDDE522DDEADBFE7
:104D50002F6C6A2C44B4A2BF0D5555555555D53FFF
:104D6000FF8300922449C23F6E204CC5CD45B73F1A
:104D7000513DD0A0660DB13FEB0D76244B7BA93F92
:104D800011DA22E33AAD903F00000000000000007D
:104D9000B04D0008000000209C0000006C2E0008B0
:104DA0004C4E00089C0000207C4800007C2E00082F
:104DB00000000000010000001000000000000000E2
:104DC00000127A0023DB793E3333034200000000F7
:104DD00000000000000000000000000000000000D3
:104DE00000000000000000000000000000000000C3
:104DF00000000000000000000000000000000000B3
:104E0000000000000000000024000000000000007E
:104E100019FCFFFF19FCFFFF00000000000000006C
:104E2000000A0A0009410008000A0A003D42000881
:104E3000000A0A00C5410008006464003D4A0008F9
:0C4E400000000000000000000000000066
:04000005080000ED02
:00000001FF
